:020000040800F2
:1000000000800120D11E0008BD1C0008CB1C000888
:10001000D11C0008D71C0008DD1C000800000000EF
:10002000000000000000000000000000E31C0008C9
:10003000F11C000800000000FF1C00080D1D000856
:10004000211F0008211F0008211F0008211F000890
:10005000211F0008211F0008211F0008211F000880
:10006000211F0008211F0008211F0008211F000870
:10007000211F0008211F0008211F0008211F000860
:10008000211F0008211F0008211F00080000000098
:10009000000000000000000000000000211F000818
:1000A000211F0008211F0008211F0008211F000830
:1000B000211F0008211F0008211F0008211F000820
:1000C000211F0008211F0008211F0008211F000810
:1000D000211F0008211F0008211F00080000000048
:1000E000211F0008211F0008211F00080000000038
:1000F000000000000000000000000000211F0008B8
:1001000000000000211F0008211F0008211F000817
:1001100000000000000000000000000000000000DF
:10012000191D0008211F0008211F0008211F0008B9
:10013000211F000800000000000000000000000077
:10014000000000000000000000000000211F000867
:10015000211F0008211F0008211F0008211F00087F
:10016000211F0008211F00080000000000000000FF
:10017000000000000000000000000000000000007F
:1001800000000000211F0008000000000000000027
:04019000211F000823
:1001A00010B5054C237833B9044B13B10448AFF3B1
:1001B00000800123237010BDE0010020000000003A
:1001C000D886000808B5034B1BB103490348AFF3B9
:1001D000008008BD00000000E4010020D88600086F
:1001E000034613F8012B002AFBD1181A0138704777
:1001F00001F0FF01102A2BDB10F0070F08D010F8D8
:10020000013B013A8B422DD010F0070F42B3F6D1DB
:10021000F0B441EA012141EA014122F007047FF0F4
:1002200000070023F0E80256083C85EA010586EA4B
:10023000010685FA47F5A3FA87F586FA47F6A5FA87
:1002400087F68EB9EED1F0BC01F0FF0102F0070293
:1002500032B110F8013B013A83EA010313B1F8D13E
:100260000020704701387047002D06BF354603381F
:10027000073815F0010F07D1013015F4807F02BF58
:10028000013015F4C03F0130F0BC0138704700BFA9
:1002900081F0004102E000BF83F0004330B54FEA37
:1002A00041044FEA430594EA050F08BF90EA020FA4
:1002B0001FBF54EA000C55EA020C7FEA645C7FEA37
:1002C000655C00F0E2804FEA5454D4EB5555B8BF5A
:1002D0006D420CDD2C4480EA020281EA030382EACB
:1002E000000083EA010180EA020281EA0303362D5D
:1002F00088BF30BD11F0004F4FEA01314FF4801C30
:100300004CEA113102D0404261EB410113F0004F41
:100310004FEA03334CEA133302D0524263EB4303F8
:1003200094EA050F00F0A780A4F10104D5F1200E96
:100330000DDB02FA0EFC22FA05F2801841F10001F1
:1003400003FA0EF2801843FA05F359410EE0A5F1C5
:1003500020050EF1200E012A03FA0EFC28BF4CF0F6
:10036000020C43FA05F3C01851EBE37101F00045AC
:1003700007D54FF0000EDCF1000C7EEB00006EEBB9
:100380000101B1F5801F1BD3B1F5001F0CD3490843
:100390005FEA30004FEA3C0C04F101044FEA44529A
:1003A00012F5800F80F09A80BCF1004F08BF5FEA21
:1003B000500C50F1000041EB045141EA050130BD01
:1003C0005FEA4C0C404141EB0101013C28BFB1F513
:1003D000801FE9D291F0000F04BF01460020B1FA5E
:1003E00081F308BF2033A3F10B03B3F120020CDA31
:1003F0000C3208DD02F1140CC2F10C0201FA0CF00F
:1004000021FA02F10CE002F11402D8BFC2F1200C73
:1004100001FA02F120FA0CFCDCBF41EA0C01904029
:10042000E41AA2BF01EB0451294330BD6FEA040472
:100430001F3C1CDA0C340EDC04F11404C4F120025D
:1004400020FA04F001FA02F340EA030021FA04F36F
:1004500045EA030130BDC4F10C04C4F1200220FAC6
:1004600002F001FA04F340EA0300294630BD21FA04
:1004700004F0294630BD94F0000F83F4801306BFCA
:1004800081F480110134013D4EE77FEA645C18BFBE
:100490007FEA655C29D094EA050F08BF90EA020F55
:1004A00005D054EA000C04BF1946104630BD91EA4D
:1004B000030F1EBF0021002030BD5FEA545C05D150
:1004C0004000494128BF41F0004130BD14F580048F
:1004D0003CBF01F5801130BD01F0004545F0FE4103
:1004E00041F470014FF0000030BD7FEA645C1ABF38
:1004F000194610467FEA655C1CBF0B46024650EA6F
:10050000013406BF52EA033591EA030F41F400219A
:1005100030BD00BF90F0000F04BF0021704730B520
:100520004FF4806404F132044FF000054FF00001F5
:1005300050E700BF90F0000F04BF0021704730B5B6
:100540004FF4806404F1320410F0004548BF40428B
:100550004FF000013EE700BF42004FEAE2014FEAE0
:1005600031014FEA02701FBF12F07F4393F07F4FBB
:1005700081F06051704732F07F4208BF704793F0BE
:100580007F4F04BF41F40021704730B54FF46074D1
:1005900001F0004521F000411CE700BF50EA0102D4
:1005A00008BF704730B54FF000050AE050EA01027D
:1005B00008BF704730B511F0004502D5404261EBED
:1005C00041014FF4806404F132045FEA915C3FF42E
:1005D000D8AE4FF003025FEADC0C18BF03325FEACB
:1005E000DC0C18BF033202EBDC02C2F1200300FA7C
:1005F00003FC20FA02F001FA03FE40EA0E0021FAA1
:1006000002F11444BDE600BF70B54FF0FF0C4CF48E
:10061000E06C1CEA11541DBF1CEA135594EA0C0F40
:1006200095EA0C0F00F0DEF82C4481EA030621EA7B
:100630004C5123EA4C5350EA013518BF52EA0335B6
:1006400041F4801143F4801338D0A0FB02CE4FF068
:100650000005E1FB02E506F00042E0FB03E54FF098
:100660000006E1FB03569CF0000F18BF4EF0010E90
:10067000A4F1FF04B6F5007F64F5407404D25FEA8C
:100680004E0E6D4146EB060642EAC62141EA55513F
:100690004FEAC52040EA5E504FEACE2EB4F1FD0C81
:1006A00088BFBCF5E06F1ED8BEF1004F08BF5FEAFF
:1006B000500E50F1000041EB045170BD06F00046B1
:1006C00046EA010140EA020081EA0301B4EB5C045E
:1006D000C2BFD4EB0C0541EA045170BD41F4801156
:1006E0004FF0000E013C00F3AB8014F1360FDEBF7B
:1006F000002001F0004170BDC4F10004203C35DA57
:100700000C341BDC04F11404C4F1200500FA05F3D9
:1007100020FA04F001FA05F240EA020001F000427A
:1007200021F0004110EBD37021FA04F642EB0601F0
:100730005EEA430E08BF20EAD37070BDC4F10C041A
:10074000C4F1200500FA04F320FA05F001FA04F2DE
:1007500040EA020001F0004110EBD37041F10001CA
:100760005EEA430E08BF20EAD37070BDC4F12005D5
:1007700000FA05F24EEA020E20FA04F301FA05F23D
:1007800043EA020321FA04F001F0004121FA04F2E5
:1007900020EA020000EBD3705EEA430E08BF20EAB5
:1007A000D37070BD94F0000F0FD101F000464000EF
:1007B00041EB010111F4801F08BF013CF7D041EA71
:1007C000060195F0000F18BF704703F00046520075
:1007D00043EB030313F4801F08BF013DF7D043EA46
:1007E0000603704794EA0C0F0CEA135518BF95EAFC
:1007F0000C0F0CD050EA410618BF52EA4306D1D183
:1008000081EA030101F000414FF0000070BD50EAA1
:10081000410606BF1046194652EA430619D094EA2B
:100820000C0F02D150EA013613D195EA0C0F05D115
:1008300052EA03361CBF104619460AD181EA030169
:1008400001F0004141F0FE4141F470014FF0000021
:1008500070BD41F0FE4141F4780170BD70B54FF0BC
:10086000FF0C4CF4E06C1CEA11541DBF1CEA13553C
:1008700094EA0C0F95EA0C0F00F0A7F8A4EB05041E
:1008800081EA030E52EA03354FEA013100F0888015
:100890004FEA03334FF0805545EA131343EA1263DE
:1008A0004FEA022245EA111545EA10654FEA002693
:1008B0000EF000419D4208BF964244F1FD0404F54C
:1008C000407402D25B084FEA3202B61A65EB0305A8
:1008D0005B084FEA32024FF480104FF4002CB6EB65
:1008E000020E75EB030E22BFB61A754640EA0C00E5
:1008F0005B084FEA3202B6EB020E75EB030E22BF25
:10090000B61A754640EA5C005B084FEA3202B6EB65
:10091000020E75EB030E22BFB61A754640EA9C0024
:100920005B084FEA3202B6EB020E75EB030E22BFF4
:10093000B61A754640EADC0055EA060E18D04FEAB2
:10094000051545EA16754FEA06164FEAC30343EA52
:1009500052734FEAC2025FEA1C1CC0D111F4801F1F
:100960000BD141EA00014FF000004FF0004CB6E718
:1009700011F4801F04BF01430020B4F1FD0C88BFB7
:10098000BCF5E06F3FF6AFAEB5EB030C04BFB6EBC2
:10099000020C5FEA500C50F1000041EB045170BDB5
:1009A0000EF0004E4EEA113114EB5C04C2BFD4EBE2
:1009B0000C0541EA045170BD41F480114FF0000E66
:1009C000013C90E645EA060E8DE60CEA135594EAE2
:1009D0000C0F08BF95EA0C0F3FF43BAF94EA0C0FE5
:1009E0000AD150EA01347FF434AF95EA0C0F7FF45A
:1009F00025AF104619462CE795EA0C0F06D152EAAE
:100A000003353FF4FDAE1046194622E750EA410691
:100A100018BF52EA43067FF4C5AE50EA41047FF4A2
:100A20000DAF52EA43057FF4EBAE12E74FF0FF3C07
:100A300006E000BF4FF0010C02E000BF4FF0010CD8
:100A40004DF804CD4FEA410C7FEA6C5C4FEA430C51
:100A500018BF7FEA6C5C1BD001B050EA410C0CBFA0
:100A600052EA430C91EA030F02BF90EA020F002002
:100A7000704710F1000F91EA030F58BF994208BF69
:100A800090422CBFD8176FEAE37040F00100704726
:100A90004FEA410C7FEA6C5C02D150EA013C07D17D
:100AA0004FEA430C7FEA6C5CD6D152EA033CD3D0C8
:100AB0005DF8040B704700BF8446104662468C46C2
:100AC0001946634600E000BF01B5FFF7B7FF0028F5
:100AD00048BF10F1000F01BD4DF808EDFFF7F4FF1E
:100AE0000CBF012000205DF808FB00BF4DF808EDA9
:100AF000FFF7EAFF34BF012000205DF808FB00BFCC
:100B00004DF808EDFFF7E0FF94BF012000205DF8ED
:100B100008FB00BF4DF808EDFFF7CEFF94BF0120A2
:100B200000205DF808FB00BF4DF808EDFFF7C4FF9B
:100B300034BF012000205DF808FB00BF4FEA410CE4
:100B40007FEA6C5C02D150EA013C0AD14FEA430CC7
:100B50007FEA6C5C02D152EA033C02D14FF0000004
:100B600070474FF0010070474FEA410212F5001242
:100B700015D211D56FF47873B3EB625212D94FEAE4
:100B8000C12343F0004343EA505311F0004F23FACE
:100B900002F018BF404270474FF00000704750EA23
:100BA000013005D111F0004008BF6FF000407047E0
:100BB0004FF00000704700BF4A0011D212F500123A
:100BC00011D20DD56FF47873B3EB62520ED44FEAA5
:100BD000C12343F0004343EA505323FA02F0704725
:100BE0004FF00000704750EA013002D14FF0FF3063
:100BF00070474FF0000070474FEA4102B2F1E04306
:100C000024BFB3F5001CDCF1FE5C0DD901F0004CF3
:100C10004FEAC0024CEA5070B2F1004F40EB830043
:100C200008BF20F00100704711F0804F21D113F16F
:100C30003872BCBF01F00040704741F480114FEAA8
:100C40005252C2F11802C2F1200C10FA0CF320FA31
:100C500002F018BF40F001004FEAC1234FEAD3234E
:100C600003FA0CFC40EA0C0023FA02F34FEA4303B8
:100C7000CCE77FEA625307D150EA01331EBF4FF041
:100C8000FE4040F44000704701F0004040F0FE405C
:100C900040F40000704700BF53B94AB9002908BFAB
:100CA00000281CBF4FF0FF314FF0FF3000F0A4B917
:100CB000ADF1080C6DE904CE00F03CF8DDF804E07D
:100CC000DDE9022304B0704738B500220023044652
:100CD0000D46FFF70BFF28B920462946BDE83840EE
:100CE00000F00AB8204605F1004100F005F8404246
:100CF00061EB410138BD00BFD0B50C4B0022064668
:100D00000F46FFF781FCFFF757FF0446FFF702FC91
:100D1000074B0022FFF778FC02460B463046394667
:100D2000FFF7BAFAFFF748FF2146D0BD0000F03DBB
:100D30000000F0412DE9F047089D04468C46002B49
:100D400040F083808A42174647D9B2FA82F242B114
:100D5000C2F1200024FA00F09140974040EA010CD3
:100D600094404FEA1748230CBCFBF8F61FFA87FEA5
:100D700008FB16C143EA014306FB0EF1994209D96B
:100D8000FB1806F1FF3080F01981994240F216817C
:100D9000023E3B445B1AA4B2B3FBF8F008FB1033ED
:100DA00044EA034400FB0EFEA64509D93C1900F1B4
:100DB000FF3380F00581A64540F2028102383C44B1
:100DC00040EA0640A4EB0E0400261DB1D4400023E7
:100DD000C5E900433146BDE8F08702B9FFDEB2FA4B
:100DE00082F2002A50D1CB1B4FEA174E1FFA87F828
:100DF0000126B3FBFEFC210C0EFB1C3341EA034130
:100E000008FB0CF38B4207D979180CF1FF3002D2A2
:100E10008B4200F2E9808446C91AA3B2B1FBFEF00E
:100E20000EFB101143EA014408FB00F8A04507D966
:100E30003C1900F1FF3302D2A04500F2D9801846D8
:100E4000A4EB080440EA0C40BFE78B4209D9002D0F
:100E500000F0B1800026C5E9000130463146BDE80A
:100E6000F087B3FA83F6002E4AD18B4202D3824236
:100E700000F2B880841A61EB030101208C46002D3A
:100E8000A8D0C5E9004CA5E7C2F1200320FA03F67B
:100E9000974001FA02F04FEA174ED9403043030C55
:100EA000B1FBFEF61FFA87F80EFB161143EA014369
:100EB00006FB08F1994204FA02F409D9FB1806F17D
:100EC000FF3C80F08D80994240F28A80023E3B4494
:100ED0005B1A81B2B3FBFEF00EFB103341EA034113
:100EE00000FB08F38B4207D9791800F1FF3C73D25D
:100EF0008B4271D902383944CB1A40EA064678E76A
:100F0000C6F1200C03FA06F422FA0CF31C4320FA73
:100F10000CF701FA06F34FEA144E21FA0CF11F43C5
:100F20003B0CB1FBFEF91FFA84F80EFB191143EAE2
:100F3000014109FB08FA8A4502FA06F200FA06F3B3
:100F400008D9611809F1FF3048D28A4546D9A9F17C
:100F500002092144A1EB0A01BFB2B1FBFEF00EFB76
:100F6000101147EA014700FB08F8B84507D9E7190F
:100F700000F1FF312ED2B8452CD90238274440EA7F
:100F80000940A7EB0807A0FB02894F45C646494622
:100F90001AD317D05DB1B3EB0E0267EB010707FA66
:100FA0000CFCF2404CEA0202F740C5E9002700269B
:100FB0003146BDE8F0872E4628460BE70646E9E6AF
:100FC0001846FDE64345E5D2B8EB020E69EB040195
:100FD0000138DFE70846D2E760468DE78146B9E78A
:100FE000664675E730464AE7ACF1020C394413E730
:100FF00002383C4424E700BF704700BF80B483B090
:1010000000AF78607A6813469B0013445B01134479
:101010007B6000BF7B685A1E7A60002BFAD100BF4C
:1010200000BF0C37BD465DF8047B704780B500AF4C
:1010300001220421064802F06FF90A20FFF7DEFFC3
:1010400000220421024802F067F900BF80BD00BF02
:10105000000C024080B582B000AF0346FB80002246
:101060000121094802F058F9074B5B6923F0F003AE
:10107000FA8812011146044A0B435361FFF7D6FF69
:1010800000BF0837BD4680BD000C024080B582B06D
:1010900000AF0346FB8001220121094802F03CF920
:1010A000074B5B6923F0F003FA8812011146044AEA
:1010B0000B435361FFF7BAFF00BF0837BD4680BD41
:1010C000000C024080B582B000AF0346FB71FB7993
:1010D0001B09DBB29BB203F00F039BB21846FFF76C
:1010E000B9FFFB799BB203F00F039BB21846FFF7E1
:1010F000B1FF3220FFF782FF00BF0837BD4680BD39
:1011000080B582B000AF0346FB71FB791B09DBB2EF
:101110009BB203F00F039BB21846FFF7B7FFFB79B2
:101120009BB203F00F039BB21846FFF7AFFF3220CC
:10113000FFF764FF00BF0837BD4680BD80B500AF34
:10114000184B5B69174A43F0F003536101220121F8
:10115000144802F0E1F801220421124802F0DCF800
:1011600044F62060FFF74AFF0320FFF773FF43F6C2
:101170009820FFF743FF0320FFF76CFF41F2883010
:10118000FFF73CFF0320FFF765FF41F28830FFF7D0
:1011900035FF0220FFF75EFF41F28830FFF72EFF98
:1011A00000BF80BD000C024080B586B000AF0123B7
:1011B0007B600123BB6003233B610023FB603B1D7D
:1011C00019462C4801F00CFF02237B600123BB6011
:1011D00003233B610023FB603B1D1946254801F0BA
:1011E000FFFE04237B600123BB6003233B610023DC
:1011F000FB603B1D19461F4801F0F2FEF0237B60A7
:101200000123BB6003233B610023FB603B1D1946A8
:10121000184801F0E5FE00220221164802F07CF891
:10122000FFF78CFF2820FFF74DFF4FF47A70FFF790
:10123000E5FE0C20FFF746FF4FF47A70FFF7DEFE65
:101240000620FFF73FFF4FF47A70FFF7D7FE01202B
:10125000FFF738FF4FF4FA60FFF7D0FE8020FFF76A
:1012600031FF4FF4FA60FFF7C9FE00BF1837BD46E3
:1012700080BD00BF000C024080B582B000AF0346C5
:101280000A46FB711346BB7100220121184802F087
:1012900043F8BB79032B27D801A252F823F000BFF3
:1012A000B1120008BF120008CD120008DB120008BE
:1012B000FB79803BDBB21846FFF704FF14E0FB79B3
:1012C000403BDBB21846FFF7FDFE0DE0FB796C3BBF
:1012D000DBB21846FFF7F6FE06E0FB792C3BDBB2EB
:1012E0001846FFF7EFFE00BF00BF0837BD4680BDC0
:1012F000000C024080B500AF0120FFF7E3FE4FF481
:10130000FA60FFF77BFE00BF80BD80B582B000AF02
:10131000786006E07B685A1C7A601B781846FFF7F5
:10132000EFFE7B681B78002BF4D100BF00BF0837AD
:10133000BD4680BD80B582B000AF0346FB80FB8810
:101340001F4AA2FB031292094FF47A7101FB02F2C9
:101350009B1A9BB21B4AA2FB03235B099BB2DBB225
:101360003033DBB21846FFF7CBFEFB88154AA2FBF1
:1013700003125209642101FB02F29B1A9BB2124A2A
:10138000A2FB0323DB089BB2DBB23033DBB218468F
:10139000FFF7B6FEFA880C4BA3FB0213D9080B46E5
:1013A0009B000B445B00D31A9BB2DBB23033DBB241
:1013B0001846FFF7A5FE00BF0837BD4680BD00BF39
:1013C000D34D62101F85EB51CDCCCCCC80B582B013
:1013D00000AF0346FB80B7F90630002B07DA2D205B
:1013E000FFF78EFEFB885B429BB2FB8002E0202071
:1013F000FFF786FEFB881846FFF79CFF00BF083703
:10140000BD4680BD80B582B000AF87ED010A786827
:10141000FFF7A2F802460B460549064803F0B8FB61
:101420000448FFF772FF00BF0837BD4680BD00BF0C
:10143000F08600086402002080B500AF194B00223E
:101440001A600FE0174B1B68012202FA03F3DA431C
:10145000154B5A610A2000F0D7FD124B1B6801336F
:10146000104A13600F4B1B68062BEBDD0D4B062259
:101470001A600FE00B4B1B68012202FA03F3DA43F8
:10148000094B5A610A2000F0BFFD064B1B68013B67
:10149000044A1360034B1B68002BEBDA00BF00BF4C
:1014A00080BD00BF000200200008024080B500AFF0
:1014B00008211D4801F018FF0346002B0AD11B4BE1
:1014C0001B68022B04DC194B1B680133174A13609D
:1014D000FFF710FF1021144801F006FF0346002B10
:1014E0000AD1124B1B68002B04DD104B1B68013B1B
:1014F0000E4A1360FFF7FEFE20210B4801F0F4FEB8
:101500000346002B0ED10A4B1B68002B05DC084B51
:101510001B680133064A136002E0054B00221A6083
:10152000FFF7E8FE00BF80BD000002403803002046
:10153000FC0100200000000080B500AF00F0F2FCCC
:1015400000F002F900F026FA00F004FA00F066F963
:1015500000F0D2F9FFF728FE6D4800F0BDFD6421D0
:101560006B4800F092FE6A4800F013FF0346694A98
:10157000136000210220FFF77FFE6748FFF7C5FEDA
:1015800000210820FFF778FE624B1B681BB218464B
:10159000FFF71CFF64215E4800F077FE5C4800F016
:1015A000F8FE03465B4A536001210220FFF764FE08
:1015B0005A48FFF7AAFE01210820FFF75DFE554BB0
:1015C0005B681BB21846FFF701FF6421504800F02A
:1015D0005CFE4F4800F0DDFE03464E4A9360022158
:1015E0000220FFF749FE4E48FFF78FFE0221082038
:1015F000FFF742FE474B9B681846FEF78BFF42A35E
:10160000D3E90023FFF700F802460B4610461946BF
:101610004FF00002434BFFF721F902460B461046FC
:101620001946FFF7E9FA034600EE103AFFF7EAFE23
:1016300002210E20FFF720FE3B48FFF766FE3448EC
:1016400000F0F0FD03210220FFF716FE3748FFF7F8
:101650005CFE374B1B68002B06D100210020FFF7F2
:101660000BFE3448FFF751FE314B1B68012B06D1AE
:1016700001210020FFF700FE2E48FFF746FE2C4B0D
:101680001B68022B06D102210020FFF7F5FD294837
:10169000FFF73BFE264B1B68032B06D103210020DE
:1016A000FFF7EAFD2348FFF730FE234B1B68002BB2
:1016B0000FD11F4B1B68032B0BD1002201211F48A8
:1016C00001F02AFE03210920FFF7D6FD1C48FFF791
:1016D0001CFE194B1B68012B0FD1154B1B68032BEC
:1016E0000BD101220121154801F016FE032109202A
:1016F000FFF7C2FD1348FFF708FEFFF7D7FEFFF71D
:101700009BFE29E7AFF30080000000000088F33F54
:1017100074020020BC020020F88600080087000840
:10172000088700080000244010870008148700087C
:10173000380300201C870008FC0100200004024040
:10174000208700082C87000880B594B000AF07F10F
:10175000200330220021184602F092FB07F10C030F
:1017600000221A605A609A60DA601A610023BB6036
:10177000284B1B6C274A43F080531364254B1B6C8A
:1017800003F08053BB60BB6800237B60224B1B6867
:1017900023F44043204A43F4004313601E4B1B686C
:1017A00003F440437B607B6801233B624FF480334A
:1017B0007B620223BB634FF48003FB6319233B640A
:1017C000A8237B640223BB640423FB6407F120038A
:1017D000184601F0FFFE0346002B01D000F07EF911
:1017E0000F23FB6002233B6100237B614FF4805396
:1017F000BB610023FB6107F10C030221184602F0D4
:1018000059F90346002B01D000F068F900BF5037AA
:10181000BD4680BD003802400070004080B584B0F5
:1018200000AF3B4600221A605A609A60DA602F4B84
:101830002F4A1A602D4B4FF480325A602B4B0022F6
:101840009A602A4B01221A61284B01221A76274BF3
:10185000002283F82020254B0022DA62234B254A00
:101860009A62224B0022DA60204B0322DA611F4B7E
:10187000002283F830201D4B01225A611B4800F0E2
:10188000E7FB0346002B01D000F028F900233B6062
:1018900001237B600723BB603B461946134800F0D9
:1018A00085FD0346002B01D000F018F901233B60B1
:1018B00002237B603B4619460C4800F077FD034647
:1018C000002B01D000F00AF902233B6003237B6068
:1018D0003B461946054800F069FD0346002B01D040
:1018E00000F0FCF800BF1037BD4680BD7402002038
:1018F000002001400100000F80B500AF124B134AD9
:101900001A60114B124A5A600F4B00229A600E4B1C
:101910000022DA600C4B4FF480421A610A4B00221D
:101920005A61094B00229A61074B0022DA61064B8B
:1019300000221A62044801F009FD0346002B01D081
:1019400000F0CCF800BF80BD100200200054004021
:10195000801A060080B582B000AF00237B600C4B7C
:101960001B6B0B4A43F480031363094B1B6B03F49B
:1019700080037B607B6800220021382001F00FF893
:10198000382001F028F800BF0837BD4680BD00BFF1
:101990000038024080B58AB000AF07F1140300227E
:1019A0001A605A609A60DA601A6100233B61464B04
:1019B0001B6B454A43F080031363434B1B6B03F0DF
:1019C00080033B613B690023FB603F4B1B6B3E4A3E
:1019D00043F0040313633C4B1B6B03F00403FB60F5
:1019E000FB680023BB60384B1B6B374A43F0010395
:1019F0001363354B1B6B03F00103BB60BB68002313
:101A00007B60314B1B6B304A43F0020313632E4B58
:101A10001B6B03F002037B607B6800233B602A4B57
:101A20001B6B294A43F008031363274B1B6B03F01E
:101A300008033B603B6800221F21244801F06CFC36
:101A400000220121224801F067FC0022F7212148F1
:101A500001F062FC1F237B610123BB610023FB615A
:101A600000233B6207F114031946184801F0B8FA45
:101A700038237B610023BB610023FB6107F1140362
:101A80001946154801F0ACFA01237B610123BB61C3
:101A90000023FB6100233B6207F1140319460C4845
:101AA00001F09EFAF7237B610123BB610023FB61F8
:101AB00000233B6207F114031946064801F090FA2F
:101AC00000BF2837BD4680BD0038024000080240F4
:101AD00000040240000C02400000024080B400AF4D
:101AE00000BFBD465DF8047B7047000080B483B042
:101AF00000AF00237B60104B5B6C0F4A43F48043C4
:101B000053640D4B5B6C03F480437B607B68002364
:101B10003B60094B1B6C084A43F080531364064B2F
:101B20001B6C03F080533B603B6800BF0C37BD4625
:101B30005DF8047B704700BF0038024080B58AB072
:101B400000AF786007F1140300221A605A609A60AF
:101B5000DA601A617B681B682F4A934257D10023D1
:101B60003B612E4B5B6C2D4A43F4807353642B4BCB
:101B70005B6C03F480733B613B690023FB60274B84
:101B80001B6B264A43F001031363244B1B6B03F0CA
:101B90000103FB60FB6807237B610323BB61002318
:101BA000FB6107F1140319461D4801F019FA1D4B9A
:101BB0001D4A1A601B4B00225A601A4B00229A6081
:101BC000184B0022DA60174B4FF480621A61154BF4
:101BD0004FF480525A61134B4FF480429A61114B7B
:101BE0004FF48072DA610F4B00221A620D4B002213
:101BF0005A620C4800F00AFF0346002B01D0FFF7A1
:101C00006DFF7B68074A9A63064A7B68936300BF4F
:101C10002837BD4680BD00BF00200140003802408B
:101C200000000240C80200201064024080B58AB063
:101C300000AF786007F1140300221A605A609A60BE
:101C4000DA601A617B681B68194A93422CD1002321
:101C50003B61184B1B6B174A43F002031363154B90
:101C60001B6B03F002033B613B694FF440737B61E4
:101C70001223BB610123FB6103233B6204237B62CC
:101C800007F1140319460C4801F0AAF90023FB6080
:101C9000084B1B6C074A43F400131364054B1B6C81
:101CA00003F40013FB60FB6800BF2837BD4680BD0E
:101CB00000540040003802400004024080B400AFED
:101CC00000BFBD465DF8047B704780B400AFFEE7FF
:101CD00080B400AFFEE780B400AFFEE780B400AF91
:101CE000FEE780B400AF00BFBD465DF8047B7047DF
:101CF00080B400AF00BFBD465DF8047B704780B480
:101D000000AF00BFBD465DF8047B704780B500AFF3
:101D100000F05AF900BF80BD80B500AF024800F066
:101D200023FF00BF80BD00BFC802002080B400AF09
:101D300001231846BD465DF8047B704780B582B02C
:101D400000AF7860396002F071F8034616221A601D
:101D50004FF0FF3318460837BD4680BD80B582B0CE
:101D600000AF78604FF0FF317868FFF7E7FFFEE7DC
:101D700080B586B000AFF860B9607A6000237B61FF
:101D80000AE0AFF300800146BB685A1CBA60CAB2D1
:101D90001A707B6901337B617A697B689A42F0DB58
:101DA0007B6818461837BD4680BD80B586B000AF49
:101DB000F860B9607A6000237B6109E0BB685A1C57
:101DC000BA601B781846AFF300807B6901337B61F2
:101DD0007A697B689A42F1DB7B6818461837BD4602
:101DE00080BD80B483B000AF78604FF0FF331846F9
:101DF0000C37BD465DF8047B704780B483B000AFFC
:101E0000786039603B684FF400525A6000231846EE
:101E10000C37BD465DF8047B704780B483B000AFDB
:101E20007860012318460C37BD465DF8047B704787
:101E300080B485B000AFF860B9607A6000231846BE
:101E40001437BD465DF8047B7047000080B584B050
:101E500000AF7860114B1B68002B02D10F4B104A6A
:101E60001A600E4B1B68FB600C4B1A687B681344AE
:101E70006A46934207D901F0D9FF03460C221A6043
:101E80004FF0FF3306E0054B1A687B681344034AA2
:101E90001360FB6818461037BD4680BD0402002061
:101EA0005003002080B400AF084BD3F88830074AB5
:101EB00043F47003C2F88830044B4FF000629A601C
:101EC00000BFBD465DF8047B704700BF00ED00E039
:101ED000DFF834D0002103E00C4B5B584350043151
:101EE0000B480C4B42189A42F6D30B4A02E00023EF
:101EF00042F8043B094B9A42F9D3FFF7D3FF01F0B4
:101F00009BFFFFF719FB7047008001201C8C000825
:101F100000000020E0010020E0010020500300202C
:101F2000FEE7000080B500AF0E4B1B680D4A43F47E
:101F3000007313600B4B1B680A4A43F48063136001
:101F4000084B1B68074A43F480731360032000F0BA
:101F50001BFD002000F008F8FFF7C8FD002318461D
:101F600080BD00BF003C024080B582B000AF786009
:101F7000124B1A68124B1B7819464FF47A73B3FB55
:101F8000F1F3B2FBF3F3184600F033FD0346002BE8
:101F900001D001230EE07B680F2B0AD8002279685C
:101FA0004FF0FF3000F0FBFC064A7B681360002313
:101FB00000E0012318460837BD4680BD0000002020
:101FC000080000200400002080B400AF064B1B78FE
:101FD0001A46064B1B681344044A136000BFBD46F3
:101FE0005DF8047B704700BF080000203C03002020
:101FF00080B400AF034B1B681846BD465DF8047BF8
:10200000704700BF3C03002080B584B000AF78600B
:10201000FFF7EEFFB8607B68FB60FB68B3F1FF3F42
:1020200005D00A4B1B781A46FB681344FB6000BFBF
:10203000FFF7DEFF0246BB68D31AFA689A42F7D868
:1020400000BF00BF1037BD4680BD00BF08000020A4
:1020500080B584B000AF78600023FB737B68002BF1
:1020600001D1012333E07B681B6C002B09D1786818
:10207000FFF764FD7B6800225A647B68002283F8C6
:102080003C207B681B6C03F01003002B18D17B688D
:102090001B6C23F4885323F0020343F002027B6895
:1020A0001A64786800F0A4FA7B6800225A647B689E
:1020B0001B6C23F0030343F001027B681A6401E008
:1020C0000123FB737B68002283F83C20FB7B1846CE
:1020D0001037BD4680BD000080B485B000AF786089
:1020E0000023BB607B6893F83C30012B01D10223B5
:1020F0008AE07B68012283F83C207B681B689B6830
:1021000003F00103012B18D07B681B689A687B6879
:102110001B6842F001029A603E4B1B683E4AA2FBDC
:1021200003239A0C13465B001344BB6002E0BB68B8
:10213000013BBB60BB68002BF9D17B681B689B68C7
:1021400003F00103012B5ED17B681B6C23F4E06379
:1021500023F0010343F480727B681A647B681B6878
:102160005B6803F48063002B07D07B681B6C23F44F
:10217000405343F480527B681A647B681B6C03F401
:102180008053B3F5805F06D17B685B6C23F0060259
:102190007B685A6402E07B6800225A647B680022F4
:1021A00083F83C201D4BFB607B681B686FF02202AC
:1021B0001A60FB685B6803F01F03002B0FD17B687C
:1021C0001B689B6803F04053002B1CD17B681B6885
:1021D0009A687B681B6842F080429A6013E07B68D3
:1021E0001B680F4A93420ED17B681B689B6803F003
:1021F0004053002B07D17B681B689A687B681B687B
:1022000042F080429A60002318461437BD465DF8BC
:10221000047B70470000002083DE1B430023014045
:102220000020014080B483B000AF78607B6893F8F1
:102230003C30012B01D1022321E07B68012283F88D
:102240003C207B681B689A687B681B6822F001024F
:102250009A607B681B689B6803F00103002B09D11F
:102260007B681B6C23F4885323F0010343F00102C5
:102270007B681A647B68002283F83C2000231846A0
:102280000C37BD465DF8047B704780B584B000AF65
:10229000786039600023FB607B681B689B6803F4EF
:1022A0008063B3F5806F13D17B681B689B6803F470
:1022B0008073B3F5807F0BD17B681B6C43F02002E9
:1022C0007B681A647B68002283F83C2001235CE071
:1022D000FFF78EFEF8601AE03B68B3F1FF3F16D0BF
:1022E0003B68002B07D0FFF783FE0246FB68D31A3A
:1022F0003A689A420BD27B681B6C43F004027B68FD
:102300001A647B68002283F83C2003233DE07B684D
:102310001B681B6803F00203022BDDD17B681B687E
:102320006FF012021A607B681B6C43F400727B68CA
:102330001A647B681B689B6803F04053002B23D111
:102340007B681B7E002B1FD17B681B68DB6A03F454
:102350007003002B06D07B681B689B6803F48063C6
:10236000002B11D17B681B6C23F480727B681A648C
:102370007B681B6C03F48053002B05D17B681B6CBE
:1023800043F001027B681A64002318461037BD46EB
:1023900080BD80B483B000AF78607B681B68DB6C65
:1023A00018460C37BD465DF8047B704780B485B095
:1023B00000AF786039600023BB607B6893F83C30E5
:1023C000012B01D1022305E17B68012283F83C2027
:1023D0003B681B68092B25D97B681B68D9683B685B
:1023E0001B689BB21A4613465B0013441E3B072230
:1023F00002FA03F3DA437B681B680A40DA607B6801
:102400001B68D9683B689A683B681B689BB2184692
:1024100003465B0003441E3B9A407B681B680A43EB
:10242000DA6022E07B681B6819693B681B689BB215
:102430001A4613465B001344072202FA03F3DA43F9
:102440007B681B680A401A617B681B6819693B68D6
:102450009A683B681B689BB2184603465B000344BE
:102460009A407B681B680A431A613B685B68062BCD
:1024700024D87B681B68596B3B685A6813469B00DD
:102480001344053B1F2202FA03F3DA437B681B68FF
:102490000A405A637B681B68596B3B681B689BB298
:1024A00018463B685A6813469B001344053B00FAE4
:1024B00003F27B681B680A435A634CE03B685B6825
:1024C0000C2B24D87B681B68196B3B685A68134631
:1024D0009B001344233B1F2202FA03F3DA437B6879
:1024E0001B680A401A637B681B68196B3B681B6892
:1024F0009BB218463B685A6813469B001344233B23
:1025000000FA03F27B681B680A431A6323E07B68C6
:102510001B68D96A3B685A6813469B001344413BC9
:102520001F2202FA03F3DA437B681B680A40DA626F
:102530007B681B68D96A3B681B689BB218463B687E
:102540005A6813469B001344413B00FA03F27B6830
:102550001B680A43DA62224BFB607B681B68214AD6
:10256000934209D13B681B68122B05D1FB685B685D
:1025700043F48002FB685A607B681B68194A9342E7
:1025800023D13B681B68102B03D03B681B68112BC1
:102590001BD1FB685B6843F40002FB685A603B6830
:1025A0001B68102B11D1104B1B68104AA2FB032390
:1025B0009A0C13469B0013445B00BB6002E0BB68AF
:1025C000013BBB60BB68002BF9D17B68002283F81C
:1025D0003C20002318461437BD465DF8047B704745
:1025E00000230140002001400000002083DE1B4347
:1025F00080B485B000AF7860794BFB60FB685B68A6
:1026000023F44032FB685A60FB685A687B685B6859
:102610001A43FB685A607B681B685A687B681B68B2
:1026200022F480725A607B681B6859687B681B695A
:102630001A027B681B680A435A607B681B685A68E9
:102640007B681B6822F040725A607B681B6859687F
:102650007B689A687B681B680A435A607B681B68C2
:102660009A687B681B6822F400629A607B681B682A
:1026700099687B68DA687B681B680A439A607B68A4
:102680009B6A584A934222D07B681B689A687B6891
:102690001B6822F070629A607B681B6899687B688F
:1026A0009A6A7B681B680A439A607B681B689A6811
:1026B0007B681B6822F040529A607B681B689968AF
:1026C0007B68DA6A7B681B680A439A600FE07B6864
:1026D0001B689A687B681B6822F070629A607B684E
:1026E0001B689A687B681B6822F040529A607B687E
:1026F0001B689A687B681B6822F002029A607B68FC
:102700001B6899687B681B7E5A007B681B680A43BC
:102710009A607B6893F82030002B1BD07B681B6885
:102720005A687B681B6842F400625A607B681B68C9
:102730005A687B681B6822F460425A607B681B6899
:1027400059687B685B6A013B5A037B681B680A43D4
:102750005A6007E07B681B685A687B681B6822F434
:1027600000625A607B681B68DA6A7B681B6822F427
:102770007002DA627B681B68D96A7B68DB69013B9F
:102780001A057B681B680A43DA627B681B689A68D3
:102790007B681B6822F400729A607B681B689968EA
:1027A0007B6893F830305A027B681B680A439A6052
:1027B0007B681B689A687B681B6822F480629A6059
:1027C0007B681B6899687B685B699A027B681B68F9
:1027D0000A439A6000BF1437BD465DF8047B70471A
:1027E000002301400100000F80B485B000AF786085
:1027F0007B6803F00703FB600C4BDB68BB60BA68C7
:102800004FF6FF031340BB60FB681A02BB6813431B
:1028100043F0BF6343F40033BB60044ABB68D3603A
:1028200000BF1437BD465DF8047B704700ED00E043
:1028300080B400AF044BDB681B0A03F007031846A3
:10284000BD465DF8047B704700ED00E080B483B0C6
:1028500000AF0346FB7197F90730002B0BDBFB79C8
:1028600003F01F02074997F907305B09012000FABE
:1028700002F241F8232000BF0C37BD465DF8047B0F
:10288000704700BF00E100E080B483B000AF0346B2
:102890003960FB7197F90730002B0ADB3B68DAB22D
:1028A0000C4997F907301201D2B20B4483F8002388
:1028B0000AE03B68DAB20849FB7903F00F03043BF6
:1028C0001201D2B20B441A7600BF0C37BD465DF838
:1028D000047B704700E100E000ED00E080B489B0C7
:1028E00000AFF860B9607A60FB6803F00703FB6132
:1028F000FB69C3F10703042B28BF0423BB61FB69F9
:102900000433062B02D9FB69033B00E000237B6103
:102910004FF0FF32BB6902FA03F3DA43BB681A4097
:102920007B699A404FF0FF317B6901FA03F3D94389
:102930007B680B40134318462437BD465DF8047B83
:102940007047000080B582B000AF78607B68013BC3
:10295000B3F1807F01D301230FE00A4A7B68013B7A
:1029600053600F214FF0FF30FFF78EFF054B002221
:102970009A60044B07221A60002318460837BD46A8
:1029800080BD00BF10E000E080B582B000AF78608D
:102990007868FFF729FF00BF0837BD4680BD80B5C6
:1029A00086B000AF0346B9607A60FB7300237B6199
:1029B000FFF73EFF78617A68B9687869FFF78EFFA4
:1029C000024697F90F3011461846FFF75DFF00BF2A
:1029D0001837BD4680BD80B582B000AF0346FB719D
:1029E00097F907301846FFF731FF00BF0837BD469B
:1029F00080BD80B582B000AF78607868FFF7A2FF35
:102A0000034618460837BD4680BD000080B586B035
:102A100000AF786000237B61FFF7EAFA38617B68DA
:102A2000002B01D1012399E07B68002283F8342038
:102A30007B68022283F835207B681B681A687B68F4
:102A40001B6822F001021A600FE0FFF7D1FA02467C
:102A50003B69D31A052B08D97B6820225A657B680D
:102A6000032283F83520032378E07B681B681B680A
:102A700003F00103002BE8D17B681B681B687B61B6
:102A80007A69384B13407B617B685A687B689B6826
:102A90001A437B68DB681A437B681B691A437B68AF
:102AA0005B691A437B689B691A437B68DB691A433D
:102AB0007B681B6A13437A6913437B617B685B6A9B
:102AC000042B07D17B68DA6A7B681B6B13437A6936
:102AD00013437B617B681B687A691A607B681B689B
:102AE0005B697B617B6923F007037B617B685B6AC1
:102AF0007A6913437B617B685B6A042B17D17B681F
:102B00009B6A7A6913437B617B68DB6A002B0ED07A
:102B1000786800F0E9F90346002B08D07B68402272
:102B20005A657B68012283F83520012316E07B6813
:102B30001B687A695A61786800F0A0F90346FB6067
:102B40007B68DB6D3F229A40FB689A607B680022BD
:102B50005A657B68012283F8352000231846183710
:102B6000BD4680BD3F8010F080B586B000AF786074
:102B70000023BB60924B1B68924AA2FB03239B0A73
:102B80007B617B689B6D3B613B691B68FB607B687D
:102B9000DB6D08229A40FB681340002B1AD07B683B
:102BA0001B681B6803F00403002B13D07B681B68B1
:102BB0001A687B681B6822F004021A607B68DB6D70
:102BC00008229A403B699A607B685B6D43F0010282
:102BD0007B685A657B68DB6D01229A40FB68134075
:102BE000002B12D07B681B685B6903F08003002B0D
:102BF0000BD07B68DB6D01229A403B699A607B6851
:102C00005B6D43F002027B685A657B68DB6D0422D2
:102C10009A40FB681340002B12D07B681B681B682E
:102C200003F00203002B0BD07B68DB6D04229A407B
:102C30003B699A607B685B6D43F004027B685A6570
:102C40007B68DB6D10229A40FB681340002B43D059
:102C50007B681B681B6803F00803002B3CD07B6873
:102C6000DB6D10229A403B699A607B681B681B6889
:102C700003F48023002B18D07B681B681B6803F4C7
:102C80000023002B08D17B681B6C002B24D07B68B1
:102C90001B6C786898471FE07B689B6C002B1BD0EF
:102CA0007B689B6C7868984716E07B681B681B689C
:102CB00003F48073002B07D17B681B681A687B685C
:102CC0001B6822F008021A607B681B6C002B03D083
:102CD0007B681B6C786898477B68DB6D20229A4084
:102CE000FB681340002B00F08E807B681B681B681C
:102CF00003F01003002B00F086807B68DB6D202240
:102D00009A403B699A607B6893F83530DBB2052BBB
:102D100036D17B681B681A687B681B6822F0160234
:102D20001A607B681B685A697B681B6822F0800206
:102D30005A617B681B6C002B03D17B689B6C002B5A
:102D400007D07B681B681A687B681B6822F0080242
:102D50001A607B68DB6D3F229A403B699A607B6812
:102D6000002283F834207B68012283F835207B68B9
:102D70001B6D002B7DD07B681B6D7868984778E0D1
:102D80007B681B681B6803F48023002B1CD07B68C6
:102D90001B681B6803F40023002B08D17B685B6C65
:102DA000002B30D07B685B6C786898472BE07B68A1
:102DB000DB6B002B27D07B68DB6B7868984722E0C1
:102DC00000000020B5814E1B7B681B681B6803F464
:102DD0008073002B0FD17B681B681A687B681B68A7
:102DE00022F010021A607B68002283F834207B688E
:102DF000012283F835207B68DB6B002B03D07B68D6
:102E0000DB6B786898477B685B6D002B32D07B6802
:102E10005B6D03F00103002B22D07B68052283F851
:102E200035207B681B681A687B681B6822F00102EA
:102E30001A60BB680133BB607A699A4207D37B682A
:102E40001B681B6803F00103002BF2D100E000BFF8
:102E50007B68002283F834207B68012283F83520C8
:102E60007B68DB6C002B05D07B68DB6C786898474F
:102E700000E000BF1837BD4680BD00BF80B485B0FC
:102E800000AF78607B681B68DBB2103B144AA2FB82
:102E900003231B09FB60134AFB6813441B781A4683
:102EA0007B68DA65FB68032B09D97B681B6823F410
:102EB0007F7323F003031A1D7B689A6507E07B6824
:102EC0001B6823F47F7323F003037A6893657B68A0
:102ED0009B6D18461437BD465DF8047B704700BFF4
:102EE000ABAAAAAA4C87000880B485B000AF78606E
:102EF0000023FB737B689B6ABB607B689B69002B2C
:102F00001FD1BB68032B56D801A252F823F000BF93
:102F1000212F0008332F0008212F0008B72F0008A9
:102F20007B68DB6A03F08073002B46D00123FB73C0
:102F300043E07B68DB6AB3F1C07F40D10123FB73C0
:102F40003DE07B689B69B3F5005F21D1BB68032B33
:102F500037D801A252F823F0692F00086F2F00081C
:102F6000692F0008812F00080123FB7330E07B6884
:102F7000DB6A03F08073002B25D00123FB7322E072
:102F80007B68DB6AB3F1C07F1FD10123FB731CE0B8
:102F9000BB68022B03D9BB68032B03D018E00123C5
:102FA000FB7315E07B68DB6A03F08073002B0ED0A7
:102FB0000123FB730BE000BF0AE000BF08E000BF85
:102FC00006E000BF04E000BF02E000BF00E000BF79
:102FD000FB7B18461437BD465DF8047B704700BF85
:102FE00080B489B000AF7860396000237B61002332
:102FF0003B610023BB610023FB6159E10122FB69B6
:1030000002FA03F37B613B681B687A6913403B61FA
:103010003A697B699A4240F048813B685B68012BC2
:103020000BD03B685B68022B07D03B685B68112BB9
:1030300003D03B685B68122B30D17B689B68BB6117
:10304000FB695B00032202FA03F3DB43BA69134016
:10305000BB613B68DA68FB695B0002FA03F3BA699B
:103060001343BB617B68BA699A607B685B68BB612C
:103070000122FB6902FA03F3DB43BA691340BB6127
:103080003B685B681B0903F00102FB6902FA03F36A
:10309000BA691343BB617B68BA695A607B68DB68B5
:1030A000BB61FB695B00032202FA03F3DB43BA69ED
:1030B0001340BB613B689A68FB695B0002FA03F34B
:1030C000BA691343BB617B68BA69DA603B685B68C5
:1030D000022B03D03B685B68122B23D1FB69DA0813
:1030E0007B68083253F82230BB61FB6903F00703A9
:1030F0009B000F2202FA03F3DB43BA691340BB6162
:103100003B681A69FB6903F007039B0002FA03F3AB
:10311000BA691343BB61FB69DA087B680832B96995
:1031200043F822107B681B68BB61FB695B000322CC
:1031300002FA03F3DB43BA691340BB613B685B6887
:1031400003F00302FB695B0002FA03F3BA6913435D
:10315000BB617B68BA691A603B685B6803F08053A7
:10316000002B00F0A2800023FB60574B5B6C564A9B
:1031700043F480435364544B5B6C03F48043FB6023
:10318000FB68524AFB699B08023352F82330BB614B
:10319000FB6903F003039B000F2202FA03F3DB43F6
:1031A000BA691340BB617B68494A934219D07B6876
:1031B000484A934213D07B68474A93420DD07B68BC
:1031C000464A934207D07B68454A934201D1042383
:1031D00008E0072306E0032304E0022302E00123C2
:1031E00000E00023FA6902F0030292009340BA69FA
:1031F0001343BB613549FB699B080233BA6941F847
:103200002320384B1B68BB613B69DB43BA69134021
:10321000BB613B685B6803F48033002B03D0BA6961
:103220003B691343BB612F4ABB6913602D4B5B683D
:10323000BB613B69DB43BA691340BB613B685B68B8
:1032400003F40033002B03D0BA693B691343BB611D
:10325000244ABB695360234B9B68BB613B69DB43DA
:10326000BA691340BB613B685B6803F48013002BB1
:1032700003D0BA693B691343BB611A4ABB699360C7
:10328000184BDB68BB613B69DB43BA691340BB6128
:103290003B685B6803F40013002B03D0BA693B69F9
:1032A0001343BB610F4ABB69D360FB690133FB6108
:1032B000FB690F2B7FF6A2AE00BF00BF2437BD46CF
:1032C0005DF8047B704700BF0038024000380140C1
:1032D000000002400004024000080240000C0240CE
:1032E00000100240003C014080B485B000AF78601F
:1032F0000B467B807B681A697B881340002B02D0C9
:103300000123FB7301E00023FB73FB7B184614379A
:10331000BD465DF8047B704780B483B000AF786031
:103320000B467B8013467B707B78002B03D07A881A
:103330007B689A6103E07B881A047B689A6100BF0E
:103340000C37BD465DF8047B7047000080B584B043
:1033500000AF78607B68002B01D101232BE17B68F3
:1033600093F83D30DBB2002B06D17B68002283F856
:103370003C207868FEF75AFC7B68242283F83D20C5
:103380007B681B681A687B681B6822F001021A6060
:103390007B681B681A687B681B6842F400421A60ED
:1033A0007B681B681A687B681B6822F400421A60FD
:1033B00000F028FDF8607B685B68814A934207D87B
:1033C000FB68804A934294BF01230023DBB206E0EE
:1033D000FB687D4A934294BF01230023DBB2002B9C
:1033E00001D00123E7E0FB68784AA2FB03239B0C92
:1033F000BB607B681B685B6823F03F017B681B68D0
:10340000BA680A435A607B681B681B6A23F03F0155
:103410007B685B686A4A934202D8BB68013309E063
:10342000BB684FF4967202FB03F3694AA2FB0323C5
:103430009B0901337A6812680B4313627B681B682F
:10344000DB6923F44F4222F0FF027B685B685C4932
:103450008B4219D8FB68591E7B685B685B00B1FB27
:10346000F3F3591C40F6FC730B40002B0AD0FB68A9
:10347000591E7B685B685B00B1FBF3F30133C3F358
:103480000B0351E004234FE07B689B68002B11D1B4
:10349000FB68581E7B6859680B465B000B44B0FB09
:1034A000F3F30133C3F30B03002B0CBF0123002301
:1034B000DBB212E0FB68581E7B6859680B469B0024
:1034C0000B4499000B44B0FBF3F30133C3F30B033C
:1034D000002B0CBF01230023DBB2002B01D0012302
:1034E00022E07B689B68002B0ED1FB68581E7B682E
:1034F00059680B465B000B44B0FBF3F30133C3F395
:103500000B0343F400430FE0FB68581E7B685968C7
:103510000B469B000B4499000B44B0FBF3F30133C3
:10352000C3F30B0343F44043796809681343CB6149
:103530007B681B681B6823F0C0017B68DA697B68C5
:103540001B6A1A437B681B680A431A607B681B6806
:103550009B6823F4034323F0FF037A6811697A68B8
:10356000D26811437A6812680B4393607B681B68CA
:10357000DB6823F0FF017B685A697B689B691A430B
:103580007B681B680A43DA607B681B681A687B6883
:103590001B6842F001021A607B6800221A647B6893
:1035A000202283F83D207B6800221A637B6800227A
:1035B00083F83E20002318461037BD4680BD00BF6B
:1035C000A08601007F841E00FF083D0083DE1B43B0
:1035D000D34D621080B586B000AF78607B68002B59
:1035E00001D101235BE27B681B6803F00103002B20
:1035F00075D0A34B9B6803F00C03042B0CD0A04B9D
:103600009B6803F00C03082B12D19D4B5B6803F4FD
:103610008003B3F5800F0BD1994B1B6803F4003383
:10362000002B5BD07B685B68002B57D1012336E20F
:103630007B685B68B3F5803F06D1914B1B68904A6D
:1036400043F4803313601DE07B685B68B3F5A02F03
:103650000CD18B4B1B688A4A43F480231360884B40
:103660001B68874A43F4803313600BE0844B1B686C
:10367000834A23F480331360814B1B68804A23F410
:10368000802313607B685B68002B13D0FEF7B0FCCF
:10369000386108E0FEF7ACFC02463B69D31A642BA4
:1036A00001D90323FBE1764B1B6803F40033002BA5
:1036B000F0D014E0FEF79CFC386108E0FEF798FCBF
:1036C00002463B69D31A642B01D90323E7E16C4B13
:1036D0001B6803F40033002BF0D100E000BF7B68CF
:1036E0001B6803F00203002B63D0654B9B6803F05B
:1036F0000C03002B0BD0624B9B6803F00C03082BD0
:103700001CD15F4B5B6803F48003002B16D15C4B2C
:103710001B6803F00203002B05D07B68DB68012BDC
:1037200001D00123BBE1564B1B6823F0F8027B68F4
:103730001B69DB00524913430B603AE07B68DB688E
:10374000002B20D04F4B01221A60FEF751FC38614C
:1037500008E0FEF74DFC02463B69D31A022B01D963
:1037600003239CE1464B1B6803F00203002BF0D0BF
:10377000434B1B6823F0F8027B681B69DB00404960
:1037800013430B6015E03F4B00221A60FEF730FC3C
:10379000386108E0FEF72CFC02463B69D31A022B85
:1037A00001D903237BE1364B1B6803F00203002B96
:1037B000F0D17B681B6803F00803002B30D07B68D6
:1037C0005B69002B16D0304B01221A60FEF710FC0B
:1037D000386108E0FEF70CFC02463B69D31A022B65
:1037E00001D903235BE1264B5B6F03F00203002B3F
:1037F000F0D015E0244B00221A60FEF7F9FB386187
:1038000008E0FEF7F5FB02463B69D31A022B01D90B
:10381000032344E11A4B5B6F03F00203002BF0D14A
:103820007B681B6803F00403002B00F0A0800023DA
:10383000FB75134B1B6C03F08053002B0FD100233F
:10384000BB600F4B1B6C0E4A43F0805313640C4B50
:103850001B6C03F08053BB60BB680123FB750B4BF3
:103860001B6803F48073002B21D1084B1B68074AA7
:1038700043F480731360FEF7BBFB386111E000BFB7
:103880000038024000004742800E4742007000406E
:10389000FEF7AEFB02463B69D31A022B01D9032384
:1038A000FDE0814B1B6803F48073002BF0D07B6834
:1038B0009B68012B06D17D4B1B6F7C4A43F00103B3
:1038C00013671CE07B689B68052B0CD1774B1B6F43
:1038D000764A43F004031367744B1B6F734A43F03B
:1038E000010313670BE0714B1B6F704A23F0010358
:1038F00013676E4B1B6F6D4A23F0040313677B68DD
:103900009B68002B15D0FEF773FB38610AE0FEF7C9
:103910006FFB02463B69D31A41F28832934201D9C8
:103920000323BCE0614B1B6F03F00203002BEED0BE
:1039300014E0FEF75DFB38610AE0FEF759FB024632
:103940003B69D31A41F28832934201D90323A6E09E
:10395000564B1B6F03F00203002BEED1FB7D012BB6
:1039600005D1524B1B6C514A23F0805313647B6882
:103970009B69002B00F092804C4B9B6803F00C037A
:10398000082B5CD07B689B69022B41D1484B0022FD
:103990001A60FEF72DFB386108E0FEF729FB0246AE
:1039A0003B69D31A022B01D9032378E03F4B1B68F4
:1039B00003F00073002BF0D17B68DA697B681B6A27
:1039C0001A437B685B6A9B011A437B689B6A5B08AE
:1039D000013B1B041A437B68DB6A1B063349134314
:1039E0004B60334B01221A60FEF702FB386108E09E
:1039F000FEF7FEFA02463B69D31A022B01D90323D4
:103A00004DE02A4B1B6803F00073002BF0D045E01B
:103A1000274B00221A60FEF7EBFA386108E0FEF748
:103A2000E7FA02463B69D31A022B01D9032336E099
:103A30001E4B1B6803F00073002BF0D12EE07B6857
:103A40009B69012B01D1012329E0184B5B68FB60C6
:103A5000FB6803F480027B68DB699A421CD1FB6837
:103A600003F03F027B681B6A9A4215D1FA6847F659
:103A7000C07313407A68526A93420DD1FB6803F415
:103A800040327B689B6A9A4206D1FB6803F0706201
:103A90007B68DB6A9A4201D0012300E000231846CC
:103AA0001837BD4680BD00BF00700040003802409E
:103AB0006000474280B584B000AF786039607B68B1
:103AC000002B01D10123CCE0684B1B6803F00F03EE
:103AD0003A689A420CD9654B3A68D2B21A70634B75
:103AE0001B6803F00F033A689A4201D00123B8E043
:103AF0007B681B6803F00203002B20D07B681B68E7
:103B000003F00403002B05D0594B9B68584A43F43B
:103B1000E05393607B681B6803F00803002B05D01B
:103B2000534B9B68524A43F460439360504B9B68ED
:103B300023F0F0027B689B684D4913438B607B68E0
:103B40001B6803F00103002B44D07B685B68012BEA
:103B500007D1474B1B6803F40033002B19D1012315
:103B60007FE07B685B68022B03D07B685B68032B7C
:103B700007D13F4B1B6803F00073002B09D10123D1
:103B80006FE03B4B1B6803F00203002B01D10123C4
:103B900067E0374B9B6823F003027B685B6834491E
:103BA00013438B60FEF724FAF8600AE0FEF720FA70
:103BB0000246FB68D31A41F28832934201D90323AB
:103BC0004FE02B4B9B6803F00C027B685B689B000B
:103BD0009A42EBD1254B1B6803F00F033A689A42D7
:103BE0000CD2224B3A68D2B21A70204B1B6803F0F9
:103BF0000F033A689A4201D0012332E07B681B68C8
:103C000003F00403002B08D0194B9B6823F4E05207
:103C10007B68DB68164913438B607B681B6803F085
:103C20000803002B09D0124B9B6823F460427B6889
:103C30001B69DB000E4913438B6000F021F802463C
:103C40000B4B9B681B0903F00F030A49CB5C22FA5C
:103C500003F3094A1360094B1B681846FEF784F901
:103C6000002318461037BD4680BD00BF003C02400F
:103C700000380240348700080000002004000020C3
:103C8000B0B584B000AF002179600021F960002157
:103C900039600021B9605249896801F00C01082996
:103CA0000DD0082900F29480002902D0042903D005
:103CB0008EE04C4BBB608EE04B4BBB608BE04849C9
:103CC000496801F03F0179604549496801F4800184
:103CD000002924D042494968890908464FF000016B
:103CE00040F2FF144FF0000500EA040201EA050368
:103CF0003D4901FB03F0002101FB02F144183A4960
:103D0000A2FB0101631819467B681A464FF00003B5
:103D1000FCF7C2FF02460B461346FB604AE0304BFD
:103D20005B689B091A464FF0000340F2FF104FF00A
:103D3000000102EA000403EA0105204629464FF08B
:103D400000024FF000034B0143EAD06342011046EA
:103D50001946001B61EB05014FF000024FF0000314
:103D60008B0143EA90638201121A63EB01034FF067
:103D700000004FF00001D90041EA5271D000024624
:103D80000B46121945EB03034FF000004FF0000102
:103D9000990241EA9251900202460B46104619469A
:103DA0007B681A464FF00003FCF776FF02460B468D
:103DB0001346FB600A4B5B681B0C03F003030133E3
:103DC0005B003B60FA683B68B2FBF3F3BB6002E068
:103DD000044BBB6000BFBB6818461037BD46B0BD82
:103DE000003802400024F40040787D0180B400AF28
:103DF000034B1B681846BD465DF8047B704700BF47
:103E00000000002080B500AFFFF7F0FF0246054B31
:103E10009B689B0A03F007030349CB5C22FA03F378
:103E2000184680BD0038024044870008014B1868DE
:103E3000704700BF0C00002070B50D4D0D4C641B89
:103E4000A4100026A64209D10B4D0C4C04F044FCF2
:103E5000641BA4100026A64205D170BD55F8043B92
:103E600098470136EEE755F8043B98470136F2E7EC
:103E7000148C0008148C0008148C0008188C00089E
:103E800002440346934200D1704703F8011BF9E74F
:103E90002DE9FF4755EC104B002D0E4619462B46D9
:103EA000BBBF05F100431D4600232D230B700D9B66
:103EB000DDF830A0914623F02008BCBF224614460E
:103EC000B8F1460F05D0B8F1450F00D101360221F7
:103ED00000E0032103AB019302AB009345EC104BD0
:103EE0005346324601F0B4FDB8F1470F074602D100
:103EF00019F0010F22D0B8F1460F07EB060910D1D7
:103F00003B78302B0AD10022002320462946FCF7BB
:103F1000E3FD18B9C6F10106CAF80060DAF800300E
:103F200099440022002320462946FCF7D5FD08B11C
:103F3000CDF80C903022039B4B4507D3039B0E9A80
:103F4000DB1B3846136004B0BDE8F087591C0391B1
:103F50001A70F0E7F7B503460029B8BF494203F8E5
:103F6000022BB4BF2D222B22092942702ADD0DF12C
:103F70000704A4460A27A6460A4691FBF7F607FB64
:103F800016153035632A04F1FF340EF8015C314612
:103F9000F1DC3031AEF1020504F8011C441C294665
:103FA00061450AD30DF10902A2EB0E02654588BFF7
:103FB00000221344181A03B0F0BD11F8012B04F8C5
:103FC000012FEDE7302330318370C170031DF1E71D
:103FD0002DE9F04F2DED028B8DB00C46DDF86080A1
:103FE00016461F46054602F08FFED0F800A0504648
:103FF000FCF7F6F800230A9323680593D8F80030FD
:1040000094F818B0073323F0070303F10802C8F847
:104010000020D3E90023C4E91223D4E9128929F04E
:1040200000430793CDF8188008EE100A9F4BDDE996
:1040300006014FF0FF32FCF781FD88BBDDE9060188
:104040009A4B4FF0FF32FCF75BFD48BB0022002388
:1040500040464946FCF74AFD10B12D2384F8433011
:10406000934B9448BBF1470F94BF98468046032377
:104070002361059B23F0040222604FF000090097A2
:1040800033460BAA2146284600F0D8F9013040F00B
:1040900090804FF0FF300DB0BDEC028BBDE8F08F8B
:1040A00042464B4640464946FCF748FD40B14B4628
:1040B000002BBCBF2D2384F843307F487F4BD1E7D2
:1040C00063680BF0DF0206925A1C3FD1062363603F
:1040D000059B616843F48062002303930AABCDE93A
:1040E00001B309AB49EC108B009322600DF123035F
:1040F0002846FFF7CDFE069B0999472B804608D13D
:10410000C81C02DB6368994241DDABF1020B5FFA28
:104110008BFBBBF1650F20D801395A4604F15000E2
:104120000991FFF717FF0A9A1318012A81462361A4
:1041300002DC2268D20701D5013323619DF82330C8
:10414000002B9CD02D2384F8433098E7069A472A09
:10415000BED1002BBCD10123B9E7BBF1660F18D14A
:10416000002963680BDD216113B92268D00702D5ED
:1041700001330B442361A1654FF00009DEE713B959
:104180002268D20701D50233F4E70123F2E74FF0AA
:10419000670B0A9B994205DB23682161D807EAD5A2
:1041A0004B1CE7E70029D4BFC1F1020201221344EE
:1041B000E0E723685A0507D423694246314628467A
:1041C000B84701302CD164E7BBF1650F40F2E080C5
:1041D000D4E9120100220023FCF77EFC002834D031
:1041E000374A012331462846B84701303FF451AFE2
:1041F000DDE909239A4202DB2368D80710D518EEBF
:10420000103A524631462846B84701303FF441AF94
:104210004FF0000804F11A090A9B013B434509DCF1
:1042200023689B0700F10581E0680B9B9842B8BFAB
:10423000184630E701234A4631462846B847013040
:104240003FF427AF08F10108E6E7099B002B39DCB2
:104250001B4A012331462846B84701303FF419AFC5
:10426000DDE90923134302D12368D907D8D518EE15
:10427000103A524631462846B84701303FF409AF5C
:104280004FF0000904F11A0A099B5B424B4501DC1F
:104290000A9B92E70123524631462846B84701302F
:1042A0003FF4F7AE09F10109EEE700BFFFFFEF7F32
:1042B000588700085C87000864870008608700084A
:1042C000688700080A9AA36D9A42A8BF1A46002A76
:1042D000914637DC4FF0000B29EAE97904F11A0224
:1042E000A36D0593A3EB09035B4533DCDDE90923EB
:1042F0009A423BDB2368DA0738D40A9A059B09996E
:10430000D31AA2EB01099945A8BF9946B9F1000F4C
:1043100035DC4FF0000829EAE97904F11A0ADDE9F1
:1043200009239B1AA3EB090343457FF779AF0123C8
:10433000524631462846B84701303FF4AAAE08F14C
:104340000108ECE71346314642462846B84701309B
:10435000C0D19EE60123314628460592B847013078
:104360003FF497AE059A0BF1010BB9E718EE103A3E
:10437000524631462846B8470130BED189E6059AF3
:104380004B46424431462846B8470130C1D180E609
:104390000A9A012A01DCDB0738D50123424631465F
:1043A0002846B84701303FF474AE18EE103A524632
:1043B00031462846B84701303FF46BAED4E91201CC
:1043C00000220023FCF788FBD8B90A9B08F1010200
:1043D000013B31462846B84701300ED159E601234A
:1043E000524631462846B84701303FF452AE08F1F4
:1043F00001080A9B013B4345F1DC4B4604F15002A6
:10440000DCE64FF0000804F11A0AF2E70123424605
:10441000DFE701234A4631462846B84701303FF4DA
:1044200038AE08F10108E3680B995B1A4345F0DCEC
:10443000FAE64FF0000804F11909F4E72DE9F04716
:10444000164699468A680B69DDF820809342B8BF0A
:104450001346336091F8432007460C460AB10133F6
:1044600033602368990642BF33680233336025689E
:1044700015F0060506D104F1190AE36832689B1AA3
:10448000AB4226DC94F84320131E226818BF012398
:1044900092062BD404F1430249463846C047013006
:1044A0001ED02368E568326803F00603042B08BFBA
:1044B000AD1AA36822690CBF25EAE5750025934271
:1044C000C4BF9B1AED1800261A34B5421AD1002039
:1044D00008E00123524649463846C047013003D11F
:1044E0004FF0FF30BDE8F0870135C6E7E1185A1CF0
:1044F000302081F84300224494F8451082F843109C
:104500000233C7E70123224649463846C0470130F7
:10451000E6D00136D9E700002DE9FF470C46914669
:10452000277E0C99782F80469A4604F1430207D8DB
:10453000622F0AD8002F00F0D880582F00F0A380F7
:1045400004F1420684F842703AE0A7F16303152BA8
:10455000F6D801A050F823F0B1450008C545000881
:104560004145000841450008414500084145000813
:10457000C54500084145000841450008414500087F
:1045800041450008D1460008F5450008B34600083B
:104590004145000841450008F34600084145000830
:1045A000F54500084145000841450008BB460008A4
:1045B0000B681A1D1B680A6004F1420684F8423039
:1045C0000123A3E0256808682E0600F104030AD53C
:1045D00005680B60002D03DA2D236D4284F843300B
:1045E0005E480A2319E015F0400F05680B6018BFFC
:1045F0002DB2EFE70B682568181D0860280601D565
:104600001D6802E06906FBD51D8854486F2F0CBF5A
:1046100008230A23002184F843106668A660002E50
:10462000A2BF216821F0040121600DB9002E4DD0F8
:104630001646B5FBF3F103FB1157C75D06F8017D84
:104640002F46BB420D46F4D9082B0BD12368DF0758
:1046500008D5236961689942DEBF302306F8013C22
:1046600006F1FF36921B2261CDF800A04B4603AA4B
:1046700021464046FFF7E2FE01304CD14FF0FF30BB
:1046800004B0BDE8F087354884F8457023680E68AB
:104690001F0656F8045B0E6014D5D90744BF43F0DB
:1046A000200323601DB9236823F020032360102317
:1046B000B0E7236843F0200323607823284884F878
:1046C0004530E3E75E0648BFADB2E6E71646BBE716
:1046D0000B68266860691D1D0D6035061B6801D5D5
:1046E000186002E07106FBD518800023236116468E
:1046F000BAE70B681A1D0A601E686268002130461E
:10470000FBF776FD08B1801B6060636823610023BE
:1047100084F84330A8E72369324649464046D047EB
:104720000130ABD023689B0713D4E068039B984209
:10473000B8BF1846A4E70123324649464046D04751
:1047400001309BD00135E36803995B1AAB42F2DC80
:10475000EBE7002504F11906F5E700BF6A870008BA
:104760007B8700082DE9F04F87B0174603938B68CD
:104770005A1EB2F5AE7F83BF6FF4AE755B1902931C
:10478000002386BF40F25D138B6002930B688B465B
:10479000002543F4F0634BF81C3BCDE904558046FB
:1047A0000C465E46AA46A9460195A26852B13B68EE
:1047B0001B784E2B64D8402B3CD8A3F12B01C8B2F8
:1047C0000E283AD9B9F1000F03D0236823F480737F
:1047D00023600AF1FF3ABAF1010F00F213815E453E
:1047E00000F205810125284607B0BDE8F08FA3F14E
:1047F00061020D2AE6D801A151F822F03B490008D8
:10480000C5470008C5470008C54700089B49000880
:1048100073490008C5470008C54700084949000812
:10482000C5470008C5470008C5470008C547000838
:1048300001490008A3F14102DBE70E29C2D801A01B
:1048400050F821F0F3480008C5470008F348000875
:1048500087490008C5470008A1480008DD4800084E
:10486000DD480008DD480008DD480008DD48000894
:10487000DD480008DD480008DD480008DD48000884
:104880006E2B09D8602BB2D8542B77D0592B99D1E5
:10489000072D97D1082529E0742B6FD0792BF6E7E7
:1048A0002168C8051AD5029B21F08001216009F119
:1048B00001091BB1013B01320293A260A368013BD5
:1048C000A3602369013323617B68013B002B7B607C
:1048D00040F384803B6801333B6066E71AEB050FC9
:1048E0007FF470AF226822F4C072226006F8013BA8
:1048F000E4E7226810067FF565AF22F08002F4E756
:10490000BAF1000F0ED1B9F1000F0ED1226802F4F6
:10491000E061B1F5E06F08D122F4F06222604FF05F
:10492000010AE3E7BAF1020F55D0012D02D0042DA0
:104930007FF448AF0135EDB2D8E7BAF1010F7FF44B
:1049400041AF4FF0020AD1E77DB9B9F1000F7FF412
:104950003CAF226802F4E061B1F5E06F7FF439AF5B
:1049600022F4F06222600125C0E7032DE2D0052D7C
:10497000DEE7022D7FF426AF0325B7E7062D7FF48F
:1049800021AF0725B2E7226891057FF51BAF22F41E
:1049900020722260CDF80490A8E7226802F4A0619A
:1049A000B1F5806F06D050057FF50CAFB9F1000F5F
:1049B0003FF40FAF910558BF019922F4F06258BF40
:1049C000A9EB010142F4C07258BFCDE90416226080
:1049D0004FF000098AE74FF0030A87E7D4F88031E7
:1049E00039464046984700283FF4DFAEEAE6D4F85F
:1049F0007C3116F8011D3A46404698472369013B31
:104A00002361ECE66B1E062B25D8022D36D85E45B9
:104A10007FF6E8AED4F87C3116F8011D3A464046E0
:104A200098472369013B2361F1E70298D4F87C3170
:104A300010F8011D02903A46404698472369013B11
:104A400023610AF1FF3A5FFA8AFABAF1020FECD158
:104A5000033DEDB2761B2368DA052FD55B0510D533
:104A60005E457FF6BFAED4F87C3116F8011D3A469C
:104A7000404698472369013B2361F1E7AA46029625
:104A8000DFE716F8011C2369652903F1FF3306F1FE
:104A9000FF3523610CD045290AD0D4F87C313A4641
:104AA00040469847236916F8021C013BB51E236156
:104AB000D4F87C313A46404698472E46256815F092
:104AC000100558D13570236803F4C063B3F5806FC7
:104AD0001CD1019B4B45A3EB090224D1002259466E
:104AE000404600F09BFE039B21681B6811F0020FFB
:104AF00057EC106B03F1040220D003990A601B6885
:104B0000C3E90067E3680133E3606CE6049B002BB4
:104B1000E4D005990A232A460131404600F008FFF7
:104B2000049B059EC21A04F26F139E4228BF04F52F
:104B3000B7761249304600F02BF8CFE711F0040F9A
:104B400003990A60DBD1D3F8008010EE102A10EE32
:104B5000100A3B463946FBF7F1FF28B1084800F040
:104B600011F888ED000ACDE730463946FCF744F8E5
:104B7000C8F80000C6E7002535E600BF8C870008AE
:104B8000A88B00089FED010A704700BF0000C07F9E
:104B90000EB400B59CB01DAB029006906FF00041C2
:104BA000094807910491094953F8042B05910068BD
:104BB000019302A902F0A4FE029B00221A701CB00D
:104BC0005DF804EB03B070470C0000200802FFFF03
:104BD00070B504460D4645EC104B164602F02CFC11
:104BE00051EC100B7EB1C5F30A53C3F16B03002BDC
:104BF00009DD1B0503F17F55002405F5401522460C
:104C00002B46FBF701FD70BD2DE9F04FA3B01F4609
:104C100000231E93A44B19921B6807930446184661
:104C20008846FBF7DDFA4FF0000A05464FF0000B0F
:104C3000CDF874801D9B1A782B2A4CD039D80D2AB8
:104C400032D8082A32D8002A3CD000230E931D9E69
:104C50003378302B40F0B480737803F0DF03582BA7
:104C60006CD10E9B01931EAB029700938F4A1FAB32
:104C70001DA9204601F040FD10F00707054605D0AC
:104C8000062F2AD1013600231D960E93199B002B67
:104C900040F096850E9BDBB152460BF1004343EC8E
:104CA000102B23B0BDE8F08F202ACED101331D9305
:104CB000C0E72D2AC9D101220E925A1C1D925B78A1
:104CC000002BC4D1199BCDF87480002B40F0768561
:104CD00052465B46E3E70022EEE71E9A3AB13521E1
:104CE00020A802F0B4FC1E99204602F079F8013F9A
:104CF000052F07D8DFE807F00E0B181D0E034FF045
:104D0000000BDA462807C1D54BF0004BBEE7DDE9C2
:104D100020ABF7E7DDE920A31F9A23F4801302F20A
:104D2000334243EA025BEDE7DFF884B14FF0000A5B
:104D3000E8E76FF0004B4FF0FF3AE3E71D9B5A1C8A
:104D40001D925B78302BF9D0002B9FD001234FF0C0
:104D5000000904931D9B0A93CDF824904F460A2224
:104D60001D980678A6F13003D9B209292AD90799E6
:104D70002A4602F0DDFE98B3002033463D460790F8
:104D80000246652B01D0452B18D11DB9049B034366
:104D900098D00025DDF8748008F101031D9398F880
:104DA00001302B2B75D02D2B7BD04FF0000CA3F1B5
:104DB0003001092940F28280CDF8748000269DE000
:104DC0000023C4E7082FD8BF099900F10100DABF1A
:104DD00002FB0133099302FB093901371D90BFE73C
:104DE0001D9B5A191D925B5D002F37D007903D46E1
:104DF000A3F13002092A12D90122C2E71D9B5A1CD5
:104E00001D925B780130302BF8D0A3F13102082AD3
:104E100000F2DB841D9A079000200A920546303B81
:104E200000F1010214D00799114407912A4600EBC2
:104E3000050E0A21724513D12A18082A05F1010529
:104E400005441CDC09990A2202FB01330993002264
:104E50001D9B591C1D915B781046C9E73846D2E767
:104E6000082A04DC099E4E4309960132E2E702F16A
:104E7000010CBCF1100FD8BF01FB09F9F5E7102DAB
:104E8000DCBF0A2202FB0939E1E700230793012274
:104E90007CE74FF0000C08F102031D9398F80230F4
:104EA00085E74FF0010CF6E7E889000894870008D1
:104EB0000000F07F1D9B591C1D915B78302BF9D0B1
:104EC000A3F1310108293FF679AFA3F1300E1D9B04
:104ED00008931D9B591C1D915B78A3F13006092E88
:104EE00037D9089E891B082944F61F6602DC7645DF
:104EF000A8BF7646BCF1000F00D07642002D4FD1FE
:104F0000049901437FF4C2AE002A7FF4DBAE692B23
:104F100027D024DC492B24D04E2B7FF4D3AE9E49DE
:104F20001DA801F041FE00283FF4CCAE1D9B1B786C
:104F3000282B2DD1994920AA1DA801F049FE05284A
:104F400026D1219BDDF880A043F0FF4B4BF4E00B12
:104F50009CE60A2101FB0E3EAEF1300EB9E76E2B46
:104F6000DBE78F491DA801F01FFE00283FF4AAAE21
:104F70001D9B8C49013B1DA81D9301F015FE10B926
:104F80001D9B01331D93DFF82CB24FF0000A7DE624
:104F9000854802F0B5FD8DED040BDDE904AB75E647
:104FA000079B0998F31A002F08BF2F46102D08936E
:104FB000A846A8BF4FF01008FBF7ACFA092D8246AF
:104FC0008B4613DD794B03EBC80353E91223FBF740
:104FD0001BFB824648468B46FBF79CFA02460B4673
:104FE00050465946FBF75AF982468B460F2D38DC5E
:104FF000089B002B3FF44AAE24DD162B0BDC6B4DD7
:1050000005EBC305D5E9000152465B46FBF7FCFA08
:1050100082468B463AE6089AC5F12503934220DB87
:10502000624CC5F10F0504EBC50152465B46D1E960
:105030000001FBF7E9FA089B5D1B04EBC504D4E90A
:105040000023E3E7089B16330BDB079B574A9E1BA5
:1050500002EBC606D6E9002350465946FBF7FEFB95
:10506000D6E7089BA5EB08089844B8F1000F71DD5E
:1050700018F00F030AD04D4901EBC30152465B46BD
:10508000D1E90001FBF7C0FA82468B4638F00F08E1
:105090004DD0B8F59A7F22DD00252E46099507955B
:1050A0002223DFF810B123604FF0000A099B002B88
:1050B0003FF4ECAD1E99204601F092FE0799204680
:1050C00001F08EFE3146204601F08AFE0999204605
:1050D00001F086FE2946204601F082FED6E5002337
:1050E0004FEA2818504659469946B8F1010F21DC7D
:1050F0000BB182468B462E4BABF1547B03EBC909B7
:1051000052465B46D9E90001FBF77EFA294B0A4675
:105110000B4029498B428246BED8A1F580118B42B3
:1051200086BFDFF898B04FF0FF3A02F1547B0023BE
:10513000049381E018F0010F07D01D4B03EBC90366
:10514000D3E90023FBF760FA012309F101094FEAD3
:105150006808CAE7EBD0C8F1000818F00F020AD0BF
:10516000124B03EBC20350465946D3E90023FBF729
:1051700075FB82468B465FEA2818D8D0B8F11F0F1E
:105180001EDD00252E460995079522234FF0000AC3
:105190004FF0000B236089E765870008A8870008A7
:1051A0005D870008EC880008A88B0008888A000842
:1051B000608A00080000F07F0000A07CFFFFEF7F06
:1051C00018F0100318BF6A23DFF8B4930493504615
:1051D0005946002318F0010F04D0D9E90023FBF74A
:1051E00013FA01235FEA680809F10809F2D10BB14B
:1051F00082468B46049BBBB1CBF30A53C3F16B03CE
:10520000002B594610DD1F2B40F32881342BDEBFC5
:10521000203B4FF0FF3202FA03F34FF0000ACCBFFD
:105220004FF05C7B03EA010B0022002350465946F5
:10523000FBF752FC0028A4D1099B00930A992B4646
:105240003A46204601F038FE099000283FF424AF8A
:10525000079B9E1B089B002BB4BF33460023109373
:10526000089B002523EAE37318932E46099B2046EA
:10527000596801F075FD079000283FF411AF099BB4
:105280001A69023203F10C0192000C3001F05AFD50
:105290004BEC10AB20AA1FA92046CDE90AAB02F0C7
:1052A00047F91E9000283FF4FBAE0121204601F093
:1052B0009DFE064600283FF4F3AE1F9B0499002B89
:1052C000ABBF109A189A189FDDF84090ACBF03EB63
:1052D0000209D71A209AA3EB01089044A34B08F1C6
:1052E000FF389845C2F1360280F2CC80A3EB080368
:1052F0001F2BA2EB03024FF0010100F3B68001FA6D
:1053000003F3119300230C9309EB0208049BC1459E
:1053100017441F444B46A8BF4346BB42A8BF3B4669
:10532000002BC2BFA8EB0308FF1AA9EB0309109BCF
:10533000002B17DD31461A46204601F013FF0646C2
:1053400000283FF4ADAE01461E9A204601F064FEEF
:105350000F9000283FF4A4AE1E99204601F040FDB6
:105360000F9B1E93B8F1000F00F39180089B002B58
:1053700008DD189A0799204601F0F4FE07900028EE
:105380003FF48EAE002F08DD07993A46204601F023
:1053900043FF079000283FF483AEB9F1000F08DD0A
:1053A00031464A46204601F037FF064600283FF4C2
:1053B00077AE079A1E99204601F0B6FF05460028F1
:1053C0003FF46EAEC3680F930023C360314601F013
:1053D0008FFF002865DA0F9B53EA0A0340F08780AD
:1053E000CBF31303002B40F082802BF000431B0D06
:1053F0001B05B3F1D66F7AD96B6913B92B69012BF1
:1054000075DD29460122204601F006FF314605469A
:1054100001F06EFF00286ADD0499554A5B460029B9
:1054200000F0858002EA0B01B1F1D66F7FDCB1F1AB
:105430005C7F7FF7AAAE4F4A0023CDE91632504673
:10544000DDE916235946FBF7DFF80B46034308BF97
:10545000222382468B4608BF23602BE64FF0FF32A3
:1054600002FA03F303EA0A0ADEE6C8F17F4808F508
:105470007F0808F57B4808F1E20801FA08F30C936D
:10548000119141E700230C93012311933CE71E99EE
:105490004246204601F0C0FE1E9000287FF466AF11
:1054A000FEE55F466ED10F9ACBF3130342B3324A47
:1054B000934228D1049B5046EBB12D4A3A40B2F1B9
:1054C000D46F4FF0FF3119D8120DC2F16B0301FAFE
:1054D00003F3984217D1294B9F4202D101303FF488
:1054E000DFAD234B3B4003F5801B4FF0000A049BCC
:1054F000002BA0D1DEE54FF0FF33EAE70B46E8E7EB
:1055000053EA0A0388D00C9BDBB13B42EFD00F9BE0
:10551000049A50465946C3B1FFF75AFB02460B4660
:10552000DDE90A01FAF7BAFE82468B46DFE713404F
:10553000A3F580136FEA135B6FEA0B5B4FF0FF3A42
:10554000D5E7119B13EA0A0FE0E7FFF741FB02469C
:105550000B46DDE90A01FAF79FFE0022002382468E
:105560008B46FBF7B9FA0028C1D00EE602FCFFFF1C
:105570000000F07F00005039FFFF0F00FFFFEF7FBA
:10558000C08700083146284602F02EF859EC108BEF
:1055900010EE100A00224FF080434946FBF7B0FAA4
:1055A00000287CD00F9B002B4CD0954B0022CDE9DE
:1055B0000C23DFF84C924FF00008924B3B401193C4
:1055C000119A914B9A4240F0B280DDE90A23DDE95D
:1055D0000C01A7F1547B4BEC10ABCDE91623CDE9C0
:1055E0000C0101F029FFDDE90C0153EC102BFBF756
:1055F0000BF852465B46FAF751FE0B468149834A47
:105600001940914282465ED90B9B02F1547293423B
:1056100003D10A9B01333FF443ADDFF8FCB14FF0F7
:10562000FF3A1E99204601F0DBFB0799204601F066
:10563000D7FB3146204601F0D3FB2946204601F036
:10564000CFFB13E6BAF1000F1BD1CBF31303F3B971
:105650006B4B002240464946FBF748FAD0B940461A
:1056600049466B4B0022FAF7CFFF8046894609F185
:105670000043CDF868801B93DDE91A23CDE90C23A4
:105680009BE7BAF1010F02D1002F3FF47EAD614BD1
:1056900000228CE7DFF878914FF00008E7E75C4BD9
:1056A000404649460022FAF7AFFF0F9B80468946E5
:1056B00033B901F1004312901393DDE91223DDE7C2
:1056C000CDE91289F9E703F1547B049B002BA8D1A3
:1056D0002BF00043119A1B0D1B059A42A1D14046A5
:1056E0004946FBF7F1FAFAF761FF02460B464046DE
:1056F0004946FAF7D1FD0F9ACBF3130343EA0A03A5
:1057000013438046894653D035A3D3E90023FBF7E2
:10571000EDF900287FF4CEAC33A3D3E90023404653
:105720004946FBF701FA00283FF47BAFC2E4049B33
:1057300033B3119BB3F1D46F22D82DA3D3E9002347
:1057400040464946FBF7DCF9A0B149464046FBF725
:1057500033FA012838BF0120FAF7DCFE0F9B8046A0
:10576000894613BB01F1004314901593DDE914231E
:10577000CDE90C230D9B119A03F1D6639B1A0D936F
:10578000DDE90C019DED0A0BCDE90C0101F054FEA1
:10579000DDE90C0153EC102BFAF736FFDDE90A23A3
:1057A000FAF77CFD82468B468FE7CDE91489DDE769
:1057B00011A3D3E90023FBF799F9B4E700230E9373
:1057C000199A1D9B1360FFF765BA652B3FF45DAB1B
:1057D000452B3FF45AAB0122FFF792BBAFF3008099
:1057E0009535A094FFFFDF3F35E5AF350000E03F82
:1057F0000000C0FFFFFFDF419535A094FFFFCF3FC2
:105800000000F03F0000F07F0000E07FFFFF9F7C82
:105810000000E03F0000F0BFFFFFEF7F014BFFF70C
:10582000F3B900BF74000020012B2DE9F04701D02F
:10583000242B06D9FEF7FAFA162303600020BDE8F0
:10584000F0873A4F8E4676461EF8014BE55D15F01F
:105850000805F8D12D2C34D19EF800404FF00108F6
:1058600006F1020E002B5CD0102B0CD1302C0AD18B
:105870009EF8004004F0DF04582C4DD19EF8014002
:1058800010230EF1020E08F1004C0CF1FF3C002633
:10589000BCFBF3F9354603FB19CAA4F13007092F05
:1058A00018D83C46A34224DD002E1FDBA9451DD39A
:1058B00001D1A2451ADB05FB034501261EF8014B69
:1058C000EBE72B2C08BF9EF80040A84608BF06F166
:1058D000020EC7E7A4F14107192F01D8373CE1E7D1
:1058E000A4F16107192F04D8573CDBE74FF0FF36CE
:1058F000E4E7002E05DA22230360654642B9284614
:105900009DE7B8F1000F00D06D42002AF7D00EB12C
:105910000EF1FF311160F2E73024002BB3D10823E0
:10592000B1E7302CA4D00A23ADE700BFE987000817
:10593000FFF77ABF2DE9F74F03690C69A3420746C9
:10594000C0F28180013C01F1140800F1140505EB5F
:105950008403019358F8243055F8242001339A42E7
:105960004FEA840B08EB8409B2FBF3F631D34FF016
:10597000000E4046AC46F24650F8042B93B206FBAC
:1059800003E34FEA134E9BB2AAEB0303120CDCF8BD
:1059900000A006FB02E213FA8AF34FEA124E1FFA46
:1059A00082FADCF80020CAEB124202EB23429BB2DF
:1059B00043EA024381454CF8043B4FEA224ADBD2DA
:1059C00055F80B302BB9019B043B9D421A462ED350
:1059D0003C61384601F08CFC002824DB0136284667
:1059E0004FF0000C58F8042BD0F800E093B2ACEB69
:1059F0000303120C13FA8EF3C2EB1E4202EB234296
:105A00009BB243EA0243C14540F8043B4FEA224CB3
:105A1000E8D255F8242005EB840322B9043B9D42CB
:105A20001A460AD33C61304603B0BDE8F08F1268D5
:105A3000043B002ACCD1013CC7E71268043B002A92
:105A4000F0D1013CEBE70020EEE700000000000091
:105A50002DE9F04F2DED028B57EC106B95B0456A98
:105A6000DDF880800591CDE90267044609920F9325
:105A700075B9102001F04CF90246606220B9B24BB2
:105A8000EA21B24802F074F8C0E901550560C5602A
:105A9000636A196851B15A684A60012393408B6068
:105AA000204601F09DF9636A00221A603B1EB9BFCF
:105AB00023F0004303930023C8F80030DDF80C9076
:105AC000A34BBCBF0122C8F8002033EA09031BD155
:105AD0000F9A42F20F731360C9F31303334300F0BC
